:02000000D32DFE
:0E000600533083120313FD00FD0B0728080082
:10001400243083120313FC00B530FD00FD0B1028BF
:0A002400FC0B10280000000008008B
:0C002E00000000000000000000000800BE
:10003A00FB14FB1F2728FF30F300F200F100F00049
:08004A00FA0DF20CFF30080072
:1000520083120313E21B2F28861330288617621B94
:100062003428061335280617E21A392886123A2848
:100072008616621A3E2806123F2806163E184328A4
:10008200861444288610061417200610E2194B28FD
:1000920086134C2886176219502806135128061712
:1000A200E218552886125628861662185A28061211
:1000B2005B2806163E185F288614602886100614F0
:1000C200172006103E1C67280A2068280320080013
:1000D2007B15FB1F73280130F300F201F101F001DF
:0800E200FA0DF20CFF300800DA
:0800EA00FA1FF21300300800B8
:0E00F200F201F101F001F801F3010030080005
:1001000083120313FB01FA01F9018030F800F10CAE
:10011000F00C031C94287408F90775080318750F70
:10012000FA070318FB0A0310F01F9C287408FA074B
:1001300075080318750FFB07FB0CFA0CF90CF80C8B
:10014000031C87287B08F3007A08F2007908F10085
:060150007808F000080031
:10015600831203136008F2007208F100F20A6108C4
:10016600F000E10A700884000008F00071088400BD
:10017600700880007108840000080319C328AF289E
:060186006008F000080013
:10018C00243083120313FD00FD0BCA280000080065
:0E019C00831203133D088A003C08820008000D
:1001AA0083120313FA017308031D7A147708031DD7
:1001BA00FA147A0803192129033A0319EC287A1840
:1001CA00E928F61F1F291D29F21F1D291F29720858
:1001DA008039FA00F21376088039F6137A06031981
:1001EA00FA287A0803191D291F29770873020319A7
:1001FA000129031C152919297608720203190829ED
:10020A00031C152919297508710203190F29031CE2
:10021A0015291929740870020319212903181929A3
:10022A00FA0803191F291D29FA0803191D291F296C
:10023A00031408000310080003140315080008003B
:10024A00831203133E106008E20029203E140800BE
:10025A0083120313F8010830FC00700DF80D7408BE
:10026A00F80203183A29F8070310F00DFC0B32299B
:02027A0008007A
:10027C00A0017208031D53297108F2007008F100E7
:10028C00F001A0157208031D53297108F200F10149
:10029C00A01120167208031961292008F302031D0E
:1002AC00031C65290310F21B6929F00DF10DF20DE9
:1002BC00F30B592965290130FC0079206C29023097
:0E02CC00FC0069206C290430FC00752008003D
:1002DA0083120313FB017308031D77080319C4294A
:1002EA0072087606FA007708F3077E30031C812924
:1002FA00F3020318C7298429F302031CCA297208C6
:10030A00F8007108FC007008FD00F817F6170310D2
:10031A00F201F101F0011830A0007D1C9E29740839
:10032A00F00775080318750FF10776080318760F9A
:10033A00F207F20CF10CF00CF80CFC0CFD0C03109B
:10034A00A00B9229F21BAE29F80DF00DF10DF20D5A
:10035A00F3037B1B701CC029F81FC029F00A03197C
:10036A00F10A0319F20A031DC029F20CF10CF00C70
:10037A00F30A0319C729FA1FF2130030CC290130F6
:10038A007920CC2902301D20CC29043069200000B4
:02039A00080059
:06039C00FB15FF30080014
:0C03A20083120313950117129712080034
:1003AE00E929803083120313D300FC29C030D30017
:1003BE00FC299430D300FC29D430D300FC298030A2
:1003CE00D300FC29831203135308013A0319D829C9
:1003DE005308023A0319DD295308033A0319E02999
:1003EE005308043A0319E329E6295403F00053088D
:1003FE00F0077008D3003E147008E20029203E106A
:0A040E005508E20029203E14080002
:10041800831203139F01C0309F0483161F179F1771
:1004280083125308F000F00D7010F00D7010F00DED
:10043800701070089F041F14C6201F151F1D262A40
:100448000000222A1F101E08F100F00183161E0862
:08045800F0040030F10408007B
:1004600083120313DE01DF015308DA005408DB00B6
:100470005508DC005608DD005D08FF3A031D4A2AD6
:100480005C08FF3A031D4A2A5B08FF3A031D4A2A0B
:100490005A08FF3A031D542A5708E0003630E1009D
:1004A000AB200330F000292C0130D800DC1F632A78
:1004B00080305C06F0007008DC00D80A5708840021
:1004C0002D308000D70A0030F0005D06031D722A2F
:1004D00070085C06031D722A70085B06031D722AF1
:1004E0005A08003A031D7B2A5708E0003A30E10021
:1004F000AB20F001292C5D08FF3A031D892A5C0816
:10050000003A031D892A5B08003A031D892A5A080C
:10051000003A031D932A5708E0003230E100AB2077
:100520005808F000292C0030F4000030F5000030AD
:10053000F6007F30F7005A08F0005B08F1005C0815
:10054000F2005D08F300D520013003180030F00000
:1005500070080319C62A5A08F0005B08F1005C080D
:10056000F2005D08F3000030F4000030F5002030A8
:10057000F6008230F7006D217008DA007108DB00A8
:100580007208DC007308DD00DF03932A0030F400FA
:100590000030F5002030F6008230F7005A08F000F5
:1005A0005B08F1005C08F2005D08F300D520013023
:1005B000031C0030F00070080319F92A5A08F000F3
:1005C0005B08F1005C08F2005D08F300CD30F40038
:1005D000CC30F5004C30F6007B30F7006D21700810
:1005E000DA007108DB007208DC007308DD00DF0A46
:1005F000C62AFF305A05F800FF305B05F9007F304E
:100600005C05FA0000305D05FB007808F40079080D
:10061000F5007A08F6007B08F700F40DF50DF60DED
:10062000F70D741000305A05F00000305B05F10042
:1006300000305C05F200FF305D05F3007008DA0061
:100640007108DB007208DC007308DD0074085A04CE
:10065000F00075085B04F10076085C04F20077088E
:100660005D04F3007008DA007108DB007208DC003A
:100670007308DD007F305D02F0007008D9000130A2
:10068000DD007008F4005A08F0005B08F1005C0817
:10069000F2005D08F30074080319552BF00DF10DFD
:1006A000F20DF30D7010FF3E4C2B7008DA0071084C
:1006B000DB007208DC007308DD005D08303EF000EE
:1006C0005708840070088000D70A80305F06F00069
:1006D0008030013A7002031C762B8030063AF0001D
:1006E00080305F067002031C762B7D2B5708840038
:1006F0002E308000D70A0130DE000630D9005908BC
:10070000003A0319DB2BDD015A08F0005B08F10009
:100710005C08F2005D08F300F00DF10DF20DF30D31
:100720007010F00DF10DF20DF30D70105A08F00776
:100730005B0803185B0FF1075C0803185C0FF207F6
:100740005D0803185D0FF3077008DA007108DB001D
:100750007208DC007308DD005A08F0005B08F10045
:100760005C08F2005D08F300F00DF10DF20DF30DE1
:1007700070107008DA007108DB007208DC00730882
:10078000DD005D08303EF0005708840070088000EE
:10079000D70A5E08003A031DD92BDF035F08003A31
:1007A000031DD92B570884002E308000D70A013052
:1007B000DE00D9037F2BFF30570784000008303A52
:1007C000031DE42BD703DB2BFF3057078400000801
:1007D0002E3A031DEC2BD7035F08003A0319252C92
:1007E0005708840065308000D70A80305F06F0002B
:1007F0008030003A70020318052C570884002D3011
:100800008000D70A5F08003CDF005F08D9005F085E
:10081000093C0318172C0A30F4005908F0002D2168
:100820003030F0075708840070088000D70A0A307B
:10083000F4005908F0002D217808F0003030F0075E
:100840005708840070088000D70A57088400800188
:04085000F0010800AB
:10085400831203137008F8007108F000F101F2012B
:10086400F301FB01FC019630F300FA017008F1007A
:0C0874007808F000F801F2013E210800B5
:10088000831603130711831212150C309704080006
:10089000831603131208013EF000F1010318F10A58
:1008A00083125308F400F50180200630F20070082E
:1008B000F4007108F50072080319632CF50CF40CB0
:1008C000F513FF3E5C2C0430F1007408F000710851
:1008D00003196E2CF00D7010FF3E682C303070053F
:1008E000F3007408F0007508F100F10CF00CF1133E
:1008F000F10CF00CF113700895000F309705730898
:040900009704080050
:10090400942C803083120313D300A72CC030D3005F
:10091400A72C9430D300A72CD430D300A72C80303C
:10092400D300A72C831203135308013A0319832C11
:100934005308023A0319882C5308033A03198B2CE1
:100944005308043A03198E2C912C5403F0005308D5
:10095400F0077008D3007008E20029203E10D60189
:1009640056085507840000080319C02C560855077B
:1009740084000008E0002521D60AB22C3E140800A9
:1009840083160313061086100612861206138613A6
:1009940083120610861086130613861206120A2086
:1009A4000A200A20861606160614172006100A20A6
:1009B4000614172006100A200614172006100A2011
:1009C40006120614172006100A2006141720061013
:1009D400861286170614172006100A208613061698
:1009E40006141720061006120614172006100A20F3
:1009F40006141720061006160614172006100A20DF
:100A040006120614172006108617061786160616F1
:0C0A14000614172006100A203E140800EB
:100A2000831203137408003A031D2B2D7508003A36
:100A3000031D2B2D7608003A031D2B2D7708003A55
:100A4000031D2B2DFF30F000FF30F1007F30F2004E
:100A5000FF30F300C62D8312031377080319BA2D54
:100A600073080319BD2D720876068039FA00F21753
:100A7000F617A0017208F8007108FC007008FD006C
:100A80007408FD027508031C750FFC027608031C30
:100A9000760FF802F801FC01FD01031C562D03102E
:100AA000F20CF10CF00CF80C0130A0007708F30206
:100AB000031C602D7E302007F3070318C02D652D21
:100AC0007E302007F307031CC32D1830FA07FD0DF5
:100AD000FC0DF80DF00DF10DF20DA00D7408F002F3
:100AE0007508031C750FF1027608031C760FF202DD
:100AF000760DA004201C7E2D7D14892D7408F0072E
:100B000075080318750FF10776080318760AF207BF
:100B10007D10FA031F307A05031D672D7B1B7D1C9A
:100B2000B02D0310F00DF10DF20DA00D7408F002C0
:100B30007508031C750FF1027608031C760FF2028C
:100B4000760D20040139FD070318FC0A0319F80A81
:100B5000031DB02DF80CFC0CFD0CF30A0319C02D7D
:100B6000FA1FF8137808F2007C08F1007D08F00005
:100B70000030C52D0130CE21C52D02307920C52D84
:0E0B800004301D20C52D08306920000008003B
:100B8E00CE208A110A128000840ABC0A0319BD0AFB
:080B9E00F003031DC72D080040
:100BA6006627C2240130E20029200C30E200292009
:100BB6000130D3000130D4002330D5008224023026
:100BC600D3000E30D4002730D500D7210230D30011
:100BD6000F30D4002130D500822412149210F9303F
:100BE60083169200D1214024D3010C22700883126F
:100BF600C3007108C4002A240030F4004030F50018
:100C06001C30F6008B30F7006D210030F400003008
:100C1600F5000030F6008930F70010257008BF0097
:100C26007108C0007208C1007308C2000030F400E9
:100C36000030F5002030F6008230F70010257008ED
:100C4600C5007108C6007208C7007308C80070089E
:100C5600D3007108D4007208D5007308D600493055
:100C6600D70030220230D3000630D4004930D500F8
:100C760082244508F4004608F5004708F6004808AF
:100C8600F7000030F0000030F1004830F200843008
:100C9600F300D520013003180030F0007008031966
:100CA600582EFF30D3004824362F4508F400460856
:100CB600F5004708F6004808F7000030F00000305D
:100CC600F1003430F2008430F300D52001300318EF
:100CD6000030F00070080319742EE030D300482469
:100CE600362F4508F4004608F5004708F600480880
:100CF600F7000030F0000030F1002030F2008430C0
:100D0600F300D520013003180030F00070080319F5
:100D1600902EC030D3004824362F4508F4004608EC
:100D2600F5004708F6004808F7000030F0000030EC
:100D3600F1000C30F2008430F300D52001300318A6
:100D46000030F00070080319AC2EA030D300482400
:100D5600362F4508F4004608F5004708F60048080F
:100D6600F7000030F0000030F1007030F200833000
:100D7600F300D520013003180030F0007008031985
:100D8600C82E8030D3004824362F4508F400460884
:100D9600F5004708F6004808F7000030F00000307C
:100DA600F1004830F2008330F300D52001300318FB
:100DB6000030F00070080319E42E6030D300482498
:100DC600362F4508F4004608F5004708F60048089F
:100DD600F7000030F0000030F1002030F2008330E0
:100DE600F300D520013003180030F0007008031915
:100DF600002F4030D3004824362F4508F40046081B
:100E0600F5004708F6004808F7000030F00000300B
:100E1600F1007030F2008230F300D5200130031863
:100E26000030F000700803191C2F2030D30048242E
:100E3600362F4508F4004608F5004708F60048082E
:100E4600F7000030F0000030F1002030F200823070
:100E5600F300D520013003180030F00070080319A4
:100E6600362FD30148241A30FB005E30FC006E306A
:100E7600FD00FD0B3C2FFC0B3C2FFB0B3C2F000019
:040E8600F72D442FD1
:100ECC00213084001B3083120313F0004A30BC0025
:080EDC000730BD00C725080026
:040E940043340034AF
:100E9800543465346D347034653472346134743468
:0E0EA80075347234653420343A34203400340A
:080EB60049344E344634003487
:080EBE004E3461344E3400345F
:040EC6003034003490
:02400E007A3BFB
:00000001FF
